:020000040800F2
:10000000D8040020E1010008EF0F0008BD0E000831
:10001000ED0F000815030008B112000800000000F1
:10002000000000000000000000000000E1100008D7
:100030001703000800000000F10F0008E31000089B
:10004000FB010008FB010008FB010008FB010008A0
:10005000FB010008FB010008FB010008FB01000890
:10006000FB010008FB010008FB010008FB01000880
:10007000FB010008FB010008FB010008FB01000870
:10008000FB010008FB010008FB0100080000000064
:10009000000000000000000000000000FB0100085C
:1000A000FB010008FB010008FB010008FB01000840
:1000B000000000000000000000000000FB0100083C
:1000C000FB010008FB010008FB010008FB01000820
:1000D000FB010008FB010008FB0100080000000014
:1000E000FB010008FB010008000000000000000008
:1000F000000000000000000000000000FB010008FC
:100100000000000000000000FB01000800000000EB
:100110000000000000000000FB01000800000000DB
:10012000FB010008FB010008FB010008FB010008BF
:10013000FB010008000000000000000000000000BB
:1001400000000000000000000000000000000000AF
:10015000FB010008FB010008FB010008FB0100088F
:10016000000000000000000000000000000000008F
:10017000000000000000000000000000000000007F
:10018000FB010008FB010008000000000000000067
:1001900000000000FB01000800000000000000005B
:1001A000000000000000000000000000000000004F
:1001B000000000000000000000000000FB0100083B
:1001C000FB010008FB010008DFF810D000F090F8F8
:1001D00000480047E5260008AFF30080D80400205F
:1001E0000648804706480047FEE7FEE7FEE7FEE7D1
:1001F000FEE7FEE7FEE7FEE7FEE7FEE76D1100081B
:10020000C90100082DE9F05F0546002092469B4693
:1002100088460646814640241BE02846414647461C
:10022000224600F055F853465A46C01A914110D361
:1002300011461846224600F03CF82D1A67EB0108DB
:100240004F4622460120002100F033F817EB000949
:100250004E41201EA4F10104DFDC484631462A4607
:100260004346BDE8F09FD2B201E000F8012B491EE1
:10027000FBD270470022F6E710B513460A46044643
:100280001946FFF7F0FF204610BD421C10F8011B75
:100290000029FBD1801A704730B504460020034680
:1002A00000E05B1C934203D2E05CCD5C401BF8D0C5
:1002B00030BD202A04DB203A00FA02F1002070470A
:1002C0009140C2F1200320FA03F319439040704794
:1002D000202A04DB203A21FA02F00021704721FA9B
:1002E00002F3D040C2F12002914008431946704702
:1002F000064C074D06E0E06840F0010394E8070073
:1003000098471034AC42F6D3FFF762FF78410008FB
:1003100098410008FEE7704770B5044600F0CCF83D
:100320000546601C02D004480078044400F0C4F87C
:10033000401BA042FAD370BD2C0000202DE9F84FDD
:1003400000224FF0010803254FF00F0E0B6808FA4A
:1003500002F42340A3426ED14E68012E05D0022E36
:1003600003D0112E01D0122E12D186684FEA420C12
:1003700005FA0CF7BE43CF6807FA0CF737438760DE
:100380004668A6430C79C4F3001494403443446097
:10039000C668570005FA07FC8C6826EA0C06BC40C4
:1003A0003443C4604C68022C01D0122C13D1D40801
:1003B00000EB8404A346D4F8209054074FEAD46A93
:1003C0000EFA0AF629EA06090E6906FA0AF646EA5C
:1003D0000906CBF8206004680E7924EA0C0406F0C4
:1003E0000306BE40264306604C68E4004CD5294C09
:1003F000266846F480462660246822F0030604F44A
:1004000080440094244C3444A446D4F80848960709
:10041000370F0EFA07F6B443204EB04201D1002642
:100420000BE01F4EB04201D1012606E01D4EB04246
:1004300002D1022601E027E00726BE402643CCF881
:100440000868194E34684F689C43FF0300D51C436D
:100450003460154E361D34684F689C43BF0300D589
:100460001C433460104E083634684F689C43FF02CA
:1004700000D51C4334600C4E0C3634684F689C43E6
:10048000BF0200D51C433460521C102AFFF45EAF3B
:10049000BDE8F88F443802400030014000000240BF
:1004A0000004024000080240003C01400AB18161A2
:1004B00070470904FBE700000148806870470000AE
:1004C0002C00002002488168027811448160704746
:1004D0002C0000200B4810B5016841F40071016048
:1004E000016841F480610160016841F4807101603C
:1004F000032000F063F8002000F006F800F024F874
:10050000002010BD003C024070B50D4D04464FF474
:100510007A712878B1FBF0F00A490968B1FBF0F074
:1005200000F053FC48B9102C07D200222146501E7F
:1005300000F024F800206C6070BD012070BD000048
:100540002C000020380000200B4882B0016841F4E4
:1005500080410160006800F4804000900648001F60
:10056000016841F080510160006800F08050009007
:10057000072002B000F022B844380240F0B40E4B1D
:100580001B680C46C3F30223C3F10705042D00D9F1
:100590000425191D072901D2002300E0DB1E0126D6
:1005A00006FA05F1491E214099409E40761E1640EC
:1005B0003143F0BC00F08EBE0CED00E0064900F0C7
:1005C000070208684FF6FF03184040EA0220034A7A
:1005D00010430860704700000CED00E00000FA05D1
:1005E0002DE9F0470E46050065D0DFF81481D8F8F4
:1005F0000000F7B200F00F00B04207D288F8007098
:10060000D8F8000000F00F00B04254D128683D4CEB
:10061000810712D5400703D5206840F4E0502060E0
:100620002878000703D5206840F4604020602068E7
:10063000A96820F0F000084320602878C0072DD07A
:10064000304968680839012812D0022813D00328DD
:1006500011D00968890700292DDA216821F00301EA
:1006600001432160FFF728FF814641F2883A0EE0FE
:1006700009688903EFE709688901ECE7FFF71CFFC8
:10068000A0EB0901514502D90320BDE8F08720689D
:10069000696800F00C00B0EB810FEFD1D8F80010C2
:1006A000404601F00F01B14207D90770006800F021
:1006B0000F00B04201D00120E7E72878400705D5B8
:1006C0002068E96820F4E05008432060287800079B
:1006D00006D52068296920F4604040EAC100206006
:1006E00000F038F82168084AC1F30311515CC84092
:1006F0000649086006480068FFF706FF0020C4E7C7
:10070000003C0240083802408640000838000020C3
:10071000300000200448054900680968044AC1F314
:100720008221515CC84070473800002008380240E0
:10073000964000080448054900680968044AC1F366
:100740004231515CC84070473800002008380240F0
:1007500096400008154810B5006810F00C021448C7
:1007600013D04110042A0FD0082A0ED10F4C241F99
:100770002268236802F03F025B0207D52068C0F3BD
:100780008810A0FB010106E0084610BD2168C1F3F6
:100790008811A1FB00010023FFF734FD2168C1F39C
:1007A0000141491C4900B0FBF1F010BD083802407E
:1007B0000024F4002DE9F84F05460078DFF800B377
:1007C000C04CC0074AD0DBF800105846C1F3810185
:1007D000012908D00068C0F3810002280AD1201D39
:1007E0000068400206D52068800337D56868002875
:1007F00072D033E06868B0F5803F10D0B0F5A02F1C
:10080000206810D020F480302060206820F4802000
:1008100020606868A8B1FFF74FFE06460DE020682B
:1008200040F48030F4E740F480202060F7E700BF18
:10083000FFF742FE801B64286FD820688003F7D53D
:100840000CE0FFF739FE064605E000BFFFF734FE77
:10085000801B6428F0D820688003F7D42878DFF85C
:10086000688280074FF0000940D5DBF80010584639
:1008700011F00C0F09D00068C0F3810002280BD1E1
:100880008F48001F0068400206D42068800715D5F5
:10089000E868012820D111E0E868B8B10120C8F863
:1008A0000000FFF709FE064605E000BFFFF704FE63
:1008B000801B0228C0D820688007F7D520682969E6
:1008C00020F0F80040EAC10020600FE0C8F8009076
:1008D000FFF7F2FD064606E0EFE000BFFFF7ECFD94
:1008E000801B022819D820688007F7D428780007D1
:1008F00022D5734E754869696C3679B10121016062
:10090000FFF7DAFD074604E0FFF7D6FDC01B02281B
:1009100003D830688007F7D50EE089E0C0F8009072
:10092000FFF7CAFD074604E0FFF7C6FDC01B02281B
:100930007ED830688007F7D42878400768D5DFF87C
:1009400080A100270AF1380ADAF80000C0000BD4B1
:10095000DAF8001041F08051CAF80010DAF800000F
:10096000012700F080500090594E3068C00510D427
:10097000306840F480703060FFF79EFD009005E025
:10098000FFF79AFD0099401A022851D83068C00537
:10099000F6D54B4EA868683601280FD00528306878
:1009A00010D020F001003060306820F0040030608A
:1009B000A868B8B1FFF780FD00900FE0306840F004
:1009C0000100F4E740F004003060F7E7FFF774FD42
:1009D0000099411A41F28830814266D83068800718
:1009E000F4D50EE0FFF768FD009007E0FFF764FD27
:1009F0000099411A41F28830814256D83068800708
:100A0000F4D42FB1DAF8001021F08051CAF80010A8
:100A1000A869D0B3DBF80010C1F3810102294CD0E2
:100A20000228484607D0C8F86000FFF745FD00E0FF
:100A30003BE005463CE04746C8F86000FFF73CFD58
:100A4000064604E0FFF738FD801B02282DD82068F9
:100A50008001F7D4F5E907010843E9681D4A490810
:100A600002EB0141AA6841EA82110843297C40EA6D
:100A70000160297D40EA01711148001F01600120D9
:100A80003866FFF719FD054605E014E0FFF714FD91
:100A9000401B022809D820688001F7D50BE000BF71
:100AA000FFF70AFD401B022802D90320BDE8F88F9A
:100AB00020688001F4D40020F8E70120F6E7000068
:100AC000083802400038024000004742800E47428A
:100AD000007000400000FFFF70B5040005D0002545
:100AE000A56294F8510010B106E0012070BD84F8B1
:100AF0005050204600F030F8022084F85100206861
:100B0000016821F040010160D4E901010843D4E902
:100B100003121143084361690843218B01F40071FA
:100B20000843E1690843216A0843A16A0843216830
:100B30000860A069042101EA1040616A0843216845
:100B400048602068C16921F40061C16165650120C8
:100B500084F85100002070BDF0B587B00446142120
:100B60006846FFF787FB1C492068884232D11B4842
:100B70000024016841F480410160006800F4804075
:100B8000059016481038016841F0040101600168C1
:100B900001F004010591016841F002010160006863
:100BA000022500F0020005900C20CDE9000502AA04
:100BB0000326052782E8D00069460948FFF7BEFBF7
:100BC0006802CDE9000502AA694682E8D00005481E
:100BD000FFF7B4FB07B0F0BD0038004040380240DA
:100BE00000080240000402402DE9F84F044690F846
:100BF000500000270A9E1D4692468B464FF0010981
:100C000001280ED0012084F85000FFF755FC8046E3
:100C100094F85100616801280CD0B1F5827F07D1AA
:100C200002E00220BDE8F88FA16809B9042801D0CC
:100C30000227C2E0BBF1000F27D0BAF1000F24D089
:100C40001DB394F85100042802D0052084F8510007
:100C500000206065C4F838A0E587A587C4F830B0E7
:100C6000E586A5862064606420680168490603D48F
:100C7000016841F040010160E068B0F5006F606814
:100C800005D0E8B3012D46D07FE0012795E008B1FB
:100C9000012D39D1206B21680088C860206B801C31
:100CA0002063E08E401EE0862EE020688168890780
:100CB0000FD5E18E69B1B9F1010F0AD1216B098815
:100CC000C160206B801C2063E08E401EE0864FF0E8
:100CD000000920688168C9070CD0E18F51B1C06854
:100CE000A16B0880A06B801CA063E08F401EE08792
:100CF0004FF00109FFF7E0FBA0EB0800B04200E075
:100D000009E001D3701C50D1E08E0028CDD1E08FD6
:100D10000028CAD13FE0206B216800780873206B5F
:100D2000401C2063E08E401EE0862EE02068816833
:100D300089070FD5E18E69B1B9F1010F0AD1216B95
:100D400009780173206B401C2063E08E401EE08612
:100D50004FF0000920688168C9070CD0E18F51B1BC
:100D6000C068A16B0870A06B401CA063E08F401EA0
:100D7000E0874FF00109FFF79FFBA0EB0800B042AE
:100D800002D3701C01D010E07EB1E08E0028CDD1DE
:100D9000E08F0028CAD142463146204600F02AF9A9
:100DA00028B101272020606507E0032705E0A0683F
:100DB00018B92068C16880680090012084F851004B
:100DC000002084F8500038462CE710B5401EB0F1E2
:100DD000807F01D3012010BD4FF0E02460610F211E
:100DE000601700F077FA0020A06107202061002042
:100DF00010BD70B5040004D094F83900002510B17E
:100E000006E0012070BD84F83850204600F022F83A
:100E1000242084F839002068C16821F40051C160A1
:100E2000204600F0B1F92068016921F49041016188
:100E30002068416921F02A0141612068C16841F4BC
:100E40000051C160E563202084F8390084F83A003D
:100E5000002070BD10B586B0044614216846FFF727
:100E600009FA13492068884220D1124800210268FB
:100E700042F400320260006800F4003005900D4832
:100E80001038026842F001020260006800F00100C0
:100E900005900C2000900220CDE901010320039071
:100EA0000720049069460448FFF748FA06B010BDD1
:100EB000004400404038024000000240FEE70000CD
:100EC0002DE9F04786B014216846FFF7D3F934487E
:100ED0000024016841F004010160016801F004018F
:100EE0000591016841F080010160016801F0800115
:100EF0000591016841F001010160016801F0010103
:100F00000591016841F0020101600068DFF89480FA
:100F100000F002000590002202214046FFF7C6FAC9
:100F2000DFF88490002220214846FFF7BFFADFF85F
:100F30007CA046F20207002239465046FFF7B6FA77
:100F40001B4E4FF40050CDE900066946029440461E
:100F5000FFF7F4F9022000900125CDE9015469461C
:100F600040460394FFF7EAF920200090CDE90154B0
:100F7000694648460394FFF7E1F90097CDE901542B
:100F8000694650460394FFF7D9F9E803CDE9000616
:100F9000694602955046FFF7D1F906B0BDE8F087E3
:100FA00030380240000802400000024000040240C5
:100FB000000021100C480B494FF4007201604FF4FF
:100FC0008271416000218160C1600161C0E9051248
:100FD0002022C0E90721416281620F21C162FFF72F
:100FE0007BBD00000038004040000020FEE7704755
:100FF0007047000038B504461248134B0068B0FB38
:10100000F3F04FF47A73584300906068B0F5827F34
:101010000DD10B46009200228021204600F016F8E8
:1010200070B1606D40F020006065032038BD00980D
:1010300030B1401E009020688068C0430006F6D59D
:10104000002038BD3800002000366E012DE9F04147
:101050001D4617460E460446DDF8188008E0681C59
:1010600006D0FFF729FAA0EB0800A8420BD255B131
:101070002068806836EA000030D00020B842EED107
:101080000020BDE8F0812068416821F0E001416066
:101090006068B0F5827F0BD1A068B0F5004F02D038
:1010A000B0F5806F04D12068016821F04001016033
:1010B000A06AB0F5005F09D12068016821F40051F1
:1010C00001602068016841F400510160012084F84A
:1010D0005100002084F850000320D2E70120CDE722
:1010E0007047FFF7EFB9000030B593B03421684680
:1010F000FFF7C0F814210DA8FFF7BCF81948002528
:10110000016841F080510160006800F08050129049
:101110001548016841F4404101600068022400F470
:1011200040401290012003901020009406940490F7
:10113000CDE907504FF4A870099004200A90CDE93A
:101140000B046846FFF736FB0DA90F2081E831003C
:10115000E002CDE9100502210DA8FFF741FA13B016
:1011600030BD000040380240007000400548016872
:1011700041F47001016003494FF00060803908605C
:101180007047000088ED00E02DE9F041044600685A
:101190000169E26821F44051114301612169A068AD
:1011A000E26908436169114308432168CA6849F24A
:1011B0000C639A430243CA6020684169A26921F422
:1011C000407111434161E069192764253226B0F569
:1011D000004F354A354920684FF0000806D0884254
:1011E00001D0904236D1FFF7A5FA35E0884201D010
:1011F000904202D1FFF79EFA01E0FFF78BFA616897
:101200004A18A0FB070148EB0803FEF7FBFF014665
:10121000B0FBF5F00201B1FBF5F06FF01803584395
:1012200001EB800006EBC000B0FBF5F000F0F80029
:1012300002EB4002B1FBF5F0584301EB800006EBF6
:10124000C000B0FBF5F000F0070021681044886092
:10125000BDE8F081FFF75EFA61688B0F8A00A0FBA2
:101260000701FEF7CFFF0146B0FBF5F06FF0180263
:10127000504301EB800006EB0010B0FBF5F000F0EE
:10128000F002B1FBF5F002EB0012B1FBF5F06FF0EC
:101290001803584301EB800006EB0010B0FBF5F09B
:1012A00000F00F00D1E700000014014000100140E1
:1012B000FEE700000FB4054B10B503A9044A0298DD
:1012C00000F028F810BC5DF814FB0000F5180008C9
:1012D0003C0000200907090E002804DB00F1E02093
:1012E00080F80014704700F00F0000F1E02080F853
:1012F000141D704702E008C8121F08C1002AFAD165
:1013000070477047002001E001C1121F002AFBD185
:10131000704700002DE9FF4F8DB00F4605460026AF
:1013200006E025280BD0DDE90F1290476D1C761CD6
:1013300028780028F5D111B03046BDE8F08F0024A0
:10134000A246A1460122E94900E0044315F8013F05
:10135000203B02FA03F00842F7D128782A2810D05F
:101360006FF02F022878A0F13001092914D80AEB78
:101370008A0102EB410144F0020400EB010A6D1CFA
:10138000F0E701CF5FEA000A03D544F40054CAF144
:10139000000A44F002046D1C28782E2817D115F895
:1013A000010F44F004042A280ED06FF02F02287891
:1013B000A0F1300109290AD809EB890102EB4101AA
:1013C00000EB01096D1CF2E757F8049B6D1C2878AF
:1013D0006C280FD006DC4C2817D068280DD06A285E
:1013E00014D104E0742810D07A280FD10DE044F411
:1013F00000140AE044F4801401E044F440146978D5
:10140000814202D104F580146D1C6D1C28786E2871
:101410001ED00CDC632830D004DC00288BD0582888
:1014200011D19FE0642867D069280CD164E073284B
:101430002DD004DC6F2872D0702804D194E0752878
:101440006ED078286DD0DDE90F129047761C4BE105
:10145000C4F30250022806D0032809D0042801CF83
:1014600009D0066040E101CFF117C0E900613BE11E
:1014700001CF068038E1067036E117F8040B8DF8CD
:10148000000000208DF80100EB46012003E057F832
:1014900004BB4FF0FF3061074FF0000102D40DE0B4
:1014A00008F10101884649450FDA8045F8DB1BF851
:1014B00008100029F4D108E008F1010188468142B2
:1014C000FADB1BF808100029F6D1DDE90F23AAEB9F
:1014D00008008146214600F031F9304400EB08064F
:1014E00004E0DDE90F121BF8010B9047B8F1010889
:1014F000F7D221464846F2E00A21C4F302524FF0E7
:10150000000B0891022A04D001CFC117032A09D089
:101510000AE0FF1D27F00707F7E8020108E02CE0CA
:101520001EE01FE000B2C117042A01D140B2C1176A
:10153000021E71F1000206DA0023D0EB030063EB18
:1015400001012D2202E0220504D52B228DF8242052
:10155000012203E0E20701D02022F7E7904653E0A2
:101560000A210BE0102109E010214FF0000B44F09C
:1015700004044FF00809089103E008214FF0000B24
:101580000891C4F30252022A04D001CF0021032A99
:1015900006D006E0FF1D27F00707F7E8020103E089
:1015A00080B2042A00D1C0B24FF0000822072BD528
:1015B0002A78702A07D0DDF820C08CF0100C5CEA85
:1015C0000B0C05D00EE040228DF82420012208E00B
:1015D00050EA010306D030238DF824308DF8252001
:1015E00002229046089B83F0080353EA0B030BD1B9
:1015F00050EA010201D1620706D530228DF824207D
:101600004FF00108A9F101092A78582A04D038A21C
:101610000B9208AA0A920BE03AA2F9E75B46089AF5
:10162000FEF7F0FD0B9B9B5C0A9A521E0A92137008
:1016300050EA0102F2D10A98ADEB000000F1200B54
:10164000600702D524F4803401E04FF00109D94548
:1016500002DDA9EB0B0000E0002000EB0B01414490
:101660000890AAEB010AE00306D4DDE90F23214626
:10167000504600F063F806444FF0000908E009A95D
:1016800011F80900DDE90F12904709F10109761CF4
:10169000C145F4DBE0030CD5DDE90F2321465046BC
:1016A00000F04CF8064404E0DDE90F1230209047CA
:1016B000761C0899481E08900029F5DC08E00A9875
:1016C0000A990078491C0A91DDE90F129047761CAF
:1016D000BBF10001ABF1010BF1DC21465046DDE925
:1016E0000F2300F019F806446D1C21E609280100BB
:1016F0003031323334353637383961626364656688
:101700000000000030313233343536373839414249
:1017100043444546000000002DE9F0410446002501
:101720001E461746880404D405E039462020B047F9
:101730006D1C641EF9D52846BDE8F0812DE9F04105
:10174000044600251E469046C80301D5302700E018
:101750002027880404D505E041463846B0476D1C73
:10176000641EF9D52846BDE8F081F8B50446002688
:101770004FF4A5552146284601F046FD4CB1694677
:101780002846009601F0D8FA0028F3D10098A0422C
:10179000F0D10020F8BD0000F8B500200A24650251
:1017A00000906946284601F0C7FA58B14FF4047218
:1017B000224923A0FFF77EFD26A0FFF77BFD2CA08A
:1017C000FFF778FD009820F480612846009101F031
:1017D0001BFD06000DD040F21622184918A0FFF795
:1017E00069FD24A0FFF766FD21A0FFF763FD3046E9
:1017F000F8BD2E466946304601F09EFA05000CD031
:1018000040F21D220D490EA0FFF754FD20A0FFF766
:1018100051FD17A0FFF74EFD0DE0009841050AD5D8
:1018200020F480613046009101F0EEFC641E054614
:1018300014F0FF04DED12846F8BD0000C93E0008C0
:10184000284150502928455252295B25735D5B255C
:10185000645D00006661696C656420746F20646576
:101860002D696E697469616C697A650A000000000F
:101870000D0000004572726F72207768696C6520F8
:1018800077726974696E67207265670A00000000EC
:101890004572726F72207768696C65207265616449
:1018A000696E67207265670A0000000038B541F272
:1018B00008456946284601F03FFA6FF00504B8B9BB
:1018C000009840F480712846009101F09DFC78B9A1
:1018D0004FF4D0556946284601F02EFA40B90098D9
:1018E00040F480312846009101F08EFC002800D0A1
:1018F000204638BD08490968C90706D0064980391D
:101900000968CA074FF0604101D1704700BF0A68FB
:10191000002AFBD008707047800E00E0154908B51A
:101920004A78002012B14A78521E4A704A78002A3A
:101930001ED10A78032A02D00978042918D1002080
:10194000009044F2213141F2740001F05DFC002866
:101950000ED16946012001F0EFF9002808D1009965
:101960008A0705D521F002010120009101F04CFC0D
:1019700008BD00000400002010B50D4C0020617867
:1019800089B92178032902D0217804290BD100F0EC
:1019900073FF00280AD145F2786141F2740001F02A
:1019A00033FC002802D16178491C617010BD000031
:1019B0000400002070B500240E4D4FF40E7614E0A4
:1019C000E878401E85F8030000F054F804000CD0BD
:1019D0003246094909A0FFF76DFC21460CA0FFF72C
:1019E00069FC17A0FFF766FCEEE7E8780028E7D16E
:1019F000204670BD04000020BA3D00082841505028
:101A00002928455252295B25735D5B25645D0000E2
:101A10002848494629204661696C20746F20686116
:101A20006E646C6520696E746572727570742025C1
:101A3000642074727920416761696E2E2E0A00005D
:101A40000D000000084810B5002141608160417020
:101A50000170C170054800F0A7FE0549032000F0A1
:101A60004DFA002010BD0000040000205D21000898
:101A70006D2100082DE9FF416FF00507FFF77CFF9E
:101A8000040007D040F21922764977A0FFF712FC34
:101A90007AA00EE041F2700503A9284601F04CF946
:101AA00004000CD040F213226E496FA0FFF702FC35
:101AB0007AA0FFF7FFFB82A0FFF7FCFBCEE00398C4
:101AC000C00773D0002000F06EFE03A9284601F085
:101AD00033F90400F2D1039820F001012846039164
:101AE00001F092FB0400E9D103A9284601F024F992
:101AF000040007D040F2BF125A495BA0FFF7DAFB9F
:101B000070A029E0794D0020A8700399C1F38B06DD
:101B1000002E7DD0029002A941F2840001F00CF960
:101B2000040007D040F2CD124E494FA0FFF7C2FB90
:101B30006FA011E0042201A9029801F0D3F804007B
:101B4000BDF80600ADF806000FD040F2D5124549A9
:101B500045A0FFF7AFFB70A0FFF7ACFB58A0FFF765
:101B6000A9FB012000F01FFE78E0BDF80600B0429E
:101B70001DD0BDF80600301A042818DD40F2DD1231
:101B8000384939A0FFF796FB9DF805009DF8043011
:101B90000090BDF80620314665A0FFF78BFB48A0FA
:101BA000FFF788FB012000F0FEFD18E046E09DF8FD
:101BB0000400012815D09DF80400022813D09DF8D8
:101BC0000400042811D040F2F712264926A0FFF79E
:101BD00071FB67A0FFF76EFB39A0FFF76BFB3C467C
:101BE0003CE06B6802E0AB6800E0EB6843B1BDF835
:101BF0000600083881B29DF80500029A083298471D
:101C0000A878002827D14FF4FF72164916A000E0EB
:101C10000AE0FFF74FFB5CA0FFF74CFB28A0FFF7A3
:101C200049FB00F087FA16E06FF0010440F206224B
:101C30000C490DA0FFF73EFB5CA03AE740F20D22F5
:101C4000084909A0FFF736FB5DA00399FFF732FBB7
:101C50001BA0FFF72FFBFFF761FE044604B02046F0
:101C6000BDE8F081A93D000828415050292845527F
:101C700052295B25735D5B25645D000028686966F9
:101C800029204641494C20746F2077616B6575703F
:101C90002074686520636869700A000028686966B6
:101CA00029204661696C20746F2052656164206947
:101CB0006E74657272757074207265670A00000038
:101CC0000D000000286869662920574946495F4889
:101CD0004F53545F5243565F4354524C5F3020621F
:101CE0007573206661696C0A000000000400002022
:101CF000286869662920574946495F484F53545F11
:101D00005243565F4354524C5F31206275732066D4
:101D100061696C0A00000000286869662920616416
:101D2000647265737320627573206661696C0A0062
:101D3000286869662920436F727275707465642023
:101D40007061636B65742053697A65203D20257549
:101D5000203C4C203D2025752C2047203D2025751A
:101D60002C204F50203D20253032583E0A000000E4
:101D7000286869662920696E76616C6964206772DB
:101D80006F75702049440A00286869662920686FC9
:101D9000737420617070206469646E2774207365A9
:101DA0007420525820446F6E650A000028686966E6
:101DB000292057726F6E672053697A650A00000008
:101DC00028686966292046616C736520696E7465B0
:101DD000727275707420256C780000002DE9FF4F39
:101DE000DFF8D0B083B09946154607004FF0010ADE
:101DF0006FF00B080AD0049840B13DB101A941F23F
:101E0000700000F099FF04004FD10FE0B9F1000F0E
:101E100003D08BF802A000F08DF9444640F25D2219
:101E2000254926A0FFF746FA29A02EE00198694629
:101E3000C0F38B0641F2840000F07EFF040034D131
:101E40002A463846049900F04DFF04002DD1B542D2
:101E50000CD944464FF41C72174918A0FFF72AFA10
:101E6000324629462248FFF725FA10E000988742BB
:101E700003D37919304481420DD9444640F2762289
:101E80000D490EA0FFF716FA1A48FFF713FA1AA029
:101E9000FFF710FA09E0884202D0B9F1000F04D030
:101EA0008BF802A000F046F9044607B02046BDE8D2
:101EB000F08F000004000020C93D00082841505068
:101EC0002928455252295B25735D5B25645D00001E
:101ED000206869665F726563656976653A20496E58
:101EE00076616C696420617267756D656E740A0055
:101EF000A0400008E44000080D00000010B50446B2
:101F00000020104A012C17D0022C13D0032C17D01C
:101F1000042C13D040F2A5220B490CA0FFF7CAF9FC
:101F200021460FA0FFF7C6F910A0FFF7C3F96FF025
:101F30000B0010BD916010BD516010BDD16010BD8F
:101F4000116110BD04000020D53D0008284150500B
:101F50002928455252295B25735D5B25645D00008D
:101F6000475270203F2025640A0000000D00000049
:101F70002DE9FF4F85B08146DDE9127621F0800022
:101F8000DDF850A01D4688468DF805008DF80490B8
:101F90000820ADF806002FB1BDF806100AEB0600C8
:101FA000084402E0BDF806002844ADF80600FFF73B
:101FB000E3FC04000FD04FF4CA724E494EA0FFF765
:101FC00079F952A0FFF776F958A0FFF773F909B035
:101FD0002046BDE8F08F4FF0000BCDF80CB0ADF807
:101FE00010B0CDF800B0009840EA090000900099C8
:101FF00041EA08200090BDF80600009941EA00403F
:102000000090009941F28C0001F0FEF80400DED14E
:10201000CDF800B0009840F002000090009941F225
:102020007808404601F0F0F80400D0D15C46CDF8C5
:102030000CB0ADF810B0C1464FF47A7813E06946A1
:10204000484600F079FE90B90098800706D403A9AD
:10205000374800F071FE50B1039408E0BDF810005D
:10206000401CADF81000BDF810004045E7D30398C0
:10207000E0B303980490BDF80600ADF8060008220E
:1020800001A9049801F098F80400A0D10498083040
:102090000490079848B101462A46049801F08CF84C
:1020A000040094D10498284404906FB10499AAEBD9
:1020B0000500084432463946049001F07DF80400DA
:1020C00085D10498304404900398800000900098D3
:1020D00040F002000090009941F26C0001F094F889
:1020E000040094D1FFF71AFC044670E7FFE76FF095
:1020F00002046CE7B13D00082841505029284552A0
:1021000052295B25735D5B25645D000028484946C4
:10211000294661696C20746F2077616B757020743B
:10212000686520636869700A000000000D00000007
:102130000004150038B5012000F035FB41F27004B1
:102140006946204600F0F8FD002806D1009840F0CE
:1021500002012046009101F057F838BD0248C178CD
:10216000491CC17070470000040000207047002A1D
:1021700005D011F8013B00F8013B521EF9D1704720
:10218000002A03D000F8011B521EFBD1704700212A
:1021900002E0491C89B2401C0278002AF9D10846A5
:1021A0007047000070B57C4C9CB0164605462C2844
:1021B00026D01B2D32D0062D3ED00E2D1ED0322D16
:1021C00048D02F2D54D0342D65D0112D7ED0132D15
:1021D0007DD0042D7CD0792D7BD0092D7AD02A2D6D
:1021E00079D04FF48C726D496DA0FFF763F82946E2
:1021F00070A0FFF75FF874A0FFF75CF81CB070BD2B
:102200000023042269463046FFF7E8FD0028F5D197
:102210006268002AF2D069462C209EE00023082242
:1022200069463046FFF7DAFD0028E7D16268002AE8
:10223000E4D069461B2090E00123302269463046F5
:10224000FFF7CCFD0028D9D16268002AD6D06946B4
:10225000062082E00023102269463046FFF7BEFDCB
:102260000028CBD16268002AC8D06946322074E0C9
:10227000642200216846FFF783FF00236422694639
:102280003046FFF7ABFD0028B8D16268002AB5D010
:1022900069462F2061E00023042201A93046FFF7A0
:1022A0009DFD0028AAD149A0FFF704F80198010E6E
:1022B0000091C1B2C0F30743C0F3072246A0FEF766
:1022C000F9FF41A0FEF7F6FF626805E009E01BE0B8
:1022D00028E035E043E050E0002A8FD00021342090
:1022E0003BE0002020700346042269463046FFF799
:1022F00075FD002882D19DF8000060706268002A98
:1023000088D06946112028E000232C2269463046F7
:10231000FFF764FD002888D16268002A88D06946EA
:1023200013201AE00023042219A93046FFF756FDB6
:10233000002888D16268002A88D019A904200CE0FE
:102340000023042219A93046FFF748FD002888D150
:102350006268002A88D019A9792090474EE70123A6
:10236000642269463046FFF739FD0028F6D16268DD
:10237000002AF3D069460920EFE7012304226946C9
:102380003046FFF72BFD0028E8D16268002AE5D02F
:1023900069462A20E1E7000018000020E53D00081A
:1023A000284150502928455252295B25735D5B25F1
:1023B000645D0000524551204E6F7420646566696B
:1023C0006E65642025640A000D000000284150500D
:1023D0002928494E464F2900436F6E666C69637425
:1023E000656420495020222025752E25752E2575DF
:1023F0002E25752022200A007CB50025069CCDE9FB
:10240000004500F001F87CBD2DE9F0479EB09946EB
:10241000DDE9267A15460E466FF00B04012A02D03C
:10242000B9F1000F0AD00EB1212E16D340F2EB12F3
:102430004E494FA0FEF73EFF52A040E04FF4F2722B
:102440004A494BA0FEF736FF53A038E057A0FEF7ED
:1024500031FF20461EB0BDE8F0870D2F09D9FF2FB0
:1024600007D04FF4FA72414941A0FEF723FF50A074
:1024700025E0014632460DF15200FFF778FE03A930
:1024800031444FF0000881F84680ADF850705FEAA3
:102490000A0000D001208DF8730003AE8DF84D5076
:1024A000032D0FD0022D3FD0042D4DD0012D50D043
:1024B00040F231222D492EA0FEF7FCFE3FA0FEF790
:1024C000F9FEC3E799F800004D46401EC0B28DF8F2
:1024D0000C00042809D340F20B22244924A0FEF763
:1024E000E9FE9DF80C103AA011E06878401EC0B2D9
:1024F0008DF80D000A280DD01A280BD040F21222B8
:102500001A491BA0FEF7D6FE9DF80D1037A0FEF766
:10251000D1FE9BE76A78A91CB01CFFF728FE6978FA
:10252000B61C01F8068014E04846FFF730FE08B1FB
:10253000412807D340F221220C490DA0FEF7BAFE34
:1025400031A0BCE7421C00E03E2249463046FFF77E
:102550000EFECDF80080CDF804806C2303AA28215C
:102560000120CDF80880FFF703FD73E7263E000841
:10257000284150502928455252295B25735D5B251F
:10258000645D000053534944204C454E20494E564B
:10259000414C49440A0000004B6579206973206E64
:1025A0006F742076616C69640A0000000D00000001
:1025B000434820494E56414C49440A00756E6465B3
:1025C00066696E65642073656320747970650A00BE
:1025D000496E76616C696420576570206B6579205F
:1025E000696E6465782025640A000000496E766192
:1025F0006C696420576570206B6579206C656E6727
:1026000074682025640A0000496E636F7272656306
:10261000742050534B206B6579206C656E6774682D
:102620000A000000014840787047000018000020B0
:10263000FFF7C0B910B550B101680E4841600021E4
:102640000170084600F012FA04000BD102E06FF0AE
:102650000B0407E00020FFF7F5F9040004D0002088
:1026600000F0B6F9204610BD03490120FFF746FCF3
:10267000F8E7000018000020A52100081FB504237A
:102680008DF80C00002000900190029003AA122106
:102690000120FFF76DFC04B010BD00207047000062
:1026A0001FB50F4C217819B16FF00D0004B010BDAB
:1026B0000D2804D9FF2802D06FF00E00F6E78DF840
:1026C0000C000020009001900290042303AA102126
:1026D0000120FFF74DFC0028E8D101212170E5E73A
:1026E0001800002086B0FDF7F5FEFEF7FDFCFEF7B2
:1026F000E7FB0122D1031848FDF7D8FEFEF75AFC8C
:10270000174816490C2201604FF4E1314160002165
:102710008160C160C0E904128161C161FEF769FB9B
:1027200010A0FEF7C7FD00F039F818216846FDF744
:10273000A1FD0F4800906846FFF77CFF010003D021
:102740000CA0FEF7B7FDFEE7FF20FFF7A9FF002072
:10275000FFF76EFFFBE7000000040240004400406A
:10276000980000204269736D696C6C61680A000012
:10277000453C00086D61696E3A206D326D5F776986
:1027800066695F696E69742063616C6C2065727242
:102790006F7221282564290D0A00000010B500F091
:1027A00005F8002010BD70477047000070B50F4C51
:1027B000002202212046FDF779FE4FF480450022D9
:1027C00029462046FDF772FE0A20FDF7A5FD0122ED
:1027D00002212046FDF76AFE0A20FDF79DFD2946ED
:1027E0002046BDE870400122FDF760BE00040240B3
:1027F000FDF792BD00207047FFF7FCBFAFF30080EC
:1028000010B50024FFF7D2FF0120FFF7F1FF2046AB
:1028100010BD000010B503280FD04FF0FF344FF467
:102820008F72094909A0FEF745FD0DA0FEF742FD94
:1028300010A0FEF73FFD204610BD0A8903C901F034
:10284000BFF80446F7E700009C3D000828415050BF
:102850002928455252295B25735D5B25645D000084
:10286000696E76616C69646520696F636C7420635E
:102870006D640A000D0000002DE9FC4100260120D6
:10288000FFF7B6FF01A9012000F056FA040006D0B8
:1028900072222E492EA0FEF70DFD32A023E0394D05
:1028A000019840F00201012000F0AEFC0120FFF78A
:1028B0009FFF6946286800F03FFA040002D10098A3
:1028C00000282CD10E2028600120FFF791FF6946D7
:1028D000286800F031FA040021D08C221B491CA08A
:1028E000FEF7E8FC28A0FEF7E5FC2FA0FEF7E2FCCF
:1028F00029E00220FFF77CFF6946286800F01CFAF7
:10290000009840071FD49F22104911A0FEF7D2FC67
:1029100026A0FEF7CFFC24A0FEF7CCFC00E00327A6
:10292000009840070FD4761CB6FBF7F007FB106049
:102930000028DED0019840F00201012000F064FC84
:1029400000984007ACD52046BDE8FC81973E0008C2
:10295000284150502928455252295B25735D5B253B
:10296000645D0000427573206572726F72202831B9
:10297000292E2057616B65207570206661696C6532
:10298000640A000020000020427573206572726F97
:1029900072202832292E2057616B652075702066C1
:1029A00061696C65640A00000D000000636C6F6370
:1029B0006B73207374696C6C204F46462E205761F0
:1029C0006B65207570206661696C65640A000000A3
:1029D00010B5FEF7E1FE040007D04FF480720D49F8
:1029E0000DA0FEF767FC11A00AE0FFF705FF040049
:1029F0000CD04FF48372074907A0FEF75BFC13A0CD
:102A0000FEF758FC18A0FEF755FC01E000F096F91F
:102A1000204610BD073F0008284150502928455244
:102A200052295B25735D5B25645D00005B6E6D69FB
:102A30002073746F705D3A20636869705F646569C4
:102A40006E6974206661696C0A0000005B6E6D69D6
:102A50002073746F705D3A206661696C20696E69DD
:102A600074206275730A00000D00000030B589B053
:102A7000012518B10078022800D102250020FFF7B7
:102A8000BDFE040006D0A4223B493CA0FEF712FC88
:102A90003FA06BE045A0FEF70DFC00F0B7FB014640
:102AA00045A0FEF707FC48A0FEF704FC00F04CF937
:102AB000284601F04BF8040015D1284601F092F8A1
:102AC000040010D1022D10D0FEF7F0FE04000FD04C
:102AD000DC22294929A0FEF7EDFB3CA0FEF7EAFB2A
:102AE00039A0FEF7E7FBFFF787FE09B0204630BDAF
:102AF000684600F0B3F804462CA0FEF7DBFB9DF817
:102B000002309DF801209DF8001038A0FEF7D2FB9E
:102B10002DA0FEF7CFFB25A0FEF7CCFB9DF80530DE
:102B20009DF804209DF8031037A0FEF7C3FB26A0F4
:102B3000FEF7C0FB1DA0FEF7BDFB002303221321FF
:102B400038A0FEF7B7FB20A0FEF7B4FB9DF800000D
:102B5000132803D19DF801000328C6D06FF00C04A0
:102B6000EA22054905A0FEF7A5FB35A0FEF7A2FB6A
:102B700015A0FEF79FFBB8E7FB3E00082841505028
:102B80002928455252295B25735D5B25645D000051
:102B90005B6E6D692073746172745D3A2066616961
:102BA0006C20696E6974206275730A002841505068
:102BB0002928494E464F290043686970204944201E
:102BC000256C780A000000000D0000006661696C49
:102BD000656420746F20656E61626C6520696E7437
:102BE000657272757074732E2E0A00004669726DDC
:102BF00077617265207665722020203A2025752E37
:102C000025752E25750A00004D696E20647269765F
:102C1000657220766572203A2025752E25752E2541
:102C2000750A0000437572722064726976657220BD
:102C30007665723A2025752E25752E25750A0000B9
:102C40004669726D776172652076657273696F6E21
:102C5000206D69736D61746368210A0038B504469C
:102C60000020009069461E4800F066F8054600986E
:102C7000000EE0700098C0F303512171C0F30341CE
:102C80006171000A20700098C0F303106070009812
:102C900000F00F00A07000F0B9FAE06120786178D0
:102CA000E2782379000201F00F01120203F00F0312
:102CB00040EA011142EA0313A078627900F00F00A4
:102CC00002F00F020143134341F230306FF00C0267
:102CD000834200D91546814200D21546284638BDA8
:102CE000AC0702002DE9F047814611481746884697
:102CF00000880838002685B23446AF4208D8BAB2F8
:102D000008EB0601484600F0CFFA204444B208E040
:102D100008EB06012A46484600F0C6FA204444B2B1
:102D200014B12046BDE8F0877F1B2E44A944E4E798
:102D30000000002000F070B900F074B901490020D3
:102D400008707047280000207CB5314C00200090AE
:102D500020704EF624066946304600F087FD0125B6
:102D600088B9257040F2DE222A492BA0FEF7A2FA8C
:102D70002E48FEF79FFA2EA0FEF79CFA69463046D1
:102D800000F074FD10B1207840B112E040F2E12271
:102D9000204921A0FEF78EFA26A023E0009820F01B
:102DA0007C0040F050013046009100F053FE90B19D
:102DB000257001A94FF4805000F058FDC0B1304695
:102DC00000F02AF920F0700040F05001304600F089
:102DD000E9F900207CBD40F2EB220E490EA0FEF77F
:102DE00069FA20A0FEF766FA11A0FEF763FAF0E791
:102DF00040F2F522074908A0FEF75CFA26A0FEF78C
:102E000059FA0BA0FEF756FA6FF005007CBD0000E2
:102E1000280000207A4000082841505029284552B7
:102E200052295B25735D5B25645D00002841000825
:102E30000D0000005B6E6D69207370695D3A20467D
:102E400061696C656420696E7465726E616C207274
:102E50006561642070726F746F636F6C2E2E2E0A22
:102E6000000000005B6E6D69207370695D3A20465A
:102E700061696C656420696E7465726E616C20773F
:102E8000726974652070726F746F636F6C20726505
:102E9000672E2E2E0A0000005B6E6D69207370692C
:102EA0005D3A204661696C20636D642072656164DF
:102EB00020636869702069642E2E2E0A00000000CD
:102EC0002DE9F8430F46002416468046C8251346D0
:102ED000014622462846009400F0EAF901280DD068
:102EE00040F28D221C491DA0FEF7E4F9414620A0C6
:102EF000FEF7E0F92AA0FEF7DDF929E0284600F008
:102F0000AFFA01280AD040F29322134913A0FEF72A
:102F1000D1F9414623A0FEF7CDF90FE0002231465A
:102F2000384600F005FB012813D040F29D220A49E3
:102F30000AA0FEF7BFF929A0FEF7BCF918A0FEF71A
:102F4000B9F900231A461946CF20009400F0B0F9D1
:102F50000020BDE8F88300006E4000082841505072
:102F60002928455252295B25735D5B25645D00006D
:102F70005B6E6D69207370695D3A204661696C65AE
:102F80006420636D642C207265616420626C6F63E1
:102F90006B202825303878292E2E2E0A00000000BC
:102FA0000D0000005B6E6D69207370695D3A20460C
:102FB00061696C656420636D6420726573706F6E07
:102FC00073652C207265616420626C6F636B2028CE
:102FD00025303878292E2E2E0A0000005B6E6D6990
:102FE000207370695D3A204661696C656420626C8B
:102FF0006F636B206461746120726561642E2E2E94
:103000000A00000010B5FFF75BFF012802D06FF047
:10301000050010BD002010BD08B5694600F026FC73
:10302000009808BD10B500F021FC012802D06FF017
:10303000050010BD002010BD2DE9F8430F46002407
:1030400016468046C7251346014622462846009468
:1030500000F02EF901280DD04FF40A72214922A068
:10306000FEF728F9414625A0FEF724F92FA0FEF728
:1030700021F918E0284600F0F3F9012816D040F2B3
:103080002E22184918A0FEF715F9414628A0FEF790
:1030900011F926A0FEF70EF900231A461946CF2093
:1030A000009400F005F90020BDE8F8833146384669
:1030B00000F01EFB012812D040F23F2209490AA06D
:1030C000FEF7F8F828A0FEF7F5F818A0FEF7F2F8DA
:1030D00000231A461946CF20009400F0E9F8012099
:1030E000E2E700005440000828415050292845528A
:1030F00052295B25735D5B25645D00005B6E6D6925
:10310000207370695D3A204661696C656420636D67
:10311000642C20777269746520626C6F636B202861
:1031200025303878292E2E2E0A0000000D000000D0
:103130005B6E6D6920737069205D3A204661696C31
:10314000656420636D6420726573706F6E73652CA7
:1031500020777269746520626C6F636B202825305C
:103160003878292E2E2E0A005B6E6D6920737069E7
:103170005D3A204661696C656420626C6F636B2008
:10318000646174612077726974652E2E2E0A0000C6
:1031900010B5FFF751FF012802D06FF0050010BDF8
:1031A000002010BD10B500F055FC012802D06FF0D2
:1031B000050010BD002010BD2DE9F04781461148E3
:1031C0001746884600880838002685B23446AF4244
:1031D00008D8BAB208EB0601484600F067F8204468
:1031E00044B208E008EB06012A46484600F05EF8C3
:1031F000204444B214B12046BDE8F0877F1B2E4422
:10320000A944E4E700000020FFF7CCBF38B5194C13
:10321000606800280ED1211D4FF48050FFF78CFD0F
:10322000002528B9694641F2F430FFF785FD10B159
:103230000020656038BD10496068884204D100985C
:1032400001280CD0481C09E00B491031884206D1F6
:103250000098032803D0042808D0881C60606068A8
:1032600020F4702040F4A020606038BD0248113086
:10327000F4E7000020000020A00210000EB500229C
:10328000CDE90020ADF8081069460320FFF7C2FA27
:103290000EBD0EB5009000200190ADF808106946F3
:1032A0000320FFF7B7FA0EBDFFF7ACBEFFF770BF04
:1032B0002DE9FF5F0D460746C3F3072C8DF800008C
:1032C000C5F30724CDF80CC005210126C5F307403E
:1032D0004FEA126AC2F30749C2F3072CC13FEDB2AD
:1032E00044F0800E03F0FF0BD2B20F2F78D2DFE84C
:1032F00007F023233F0F191930305108777777777C
:103300001B008DF801008DF802408DF8035050E04D
:103310000E988DF8014008B18DF801E08DF802504B
:10332000002006E0002000E0FF208DF801008DF86D
:1033300002008DF803003CE08DF8010003988DF841
:1033400002408DF804008DF803508DF805B0072178
:103350002FE08DF80100180C8DF8040003988DF80B
:1033600002408DF805008DF803508DF806B00FE08F
:103370000E988DF8014008B18DF801E08DF80490A9
:103380008DF802508DF805C08DF803A08DF8062049
:1033900008210EE08DF804A08DF801008DF805904D
:1033A0008DF802408DF806C08DF803508DF8072087
:1033B000092118480078C0B1491EC9B26846FFF714
:1033C00068FF70B140F22112134914A0FDF772FF9B
:1033D00000E005E016A0FDF76DFF20A0FDF76AFFF5
:1033E000002604B03046BDE8F09F0B4D7F204A1EFA
:1033F0006B46083505E000BF13F8014B84EA400036
:10340000285C521EF8D20DEB0102400002F8010CBC
:10341000D4E7000028000020153F00082841505044
:103420002928455252295B25735D5B25645D0000A8
:103430005B6E6D69207370695D3A204661696C65E9
:103440006420636D642077726974652C20627573E3
:10345000206572726F722E2E2E0A00000D00000081
:10346000F8B501240546CF2803D0C52D01D0C62DBF
:1034700006D101216846FFF701FF08B100242CE0C6
:103480000A2601216846FFF7F9FE10B14FF4A07239
:1034900010E09DF80000A84204D0301EA6F10106FD
:1034A00076B2EEDC0A2501216846FFF7E7FE60B13F
:1034B0004FF4A7720A490BA0FDF7FCFE0EA0FDF722
:1034C000F9FE1AA0FDF7F6FED8E79DF8000020B13E
:1034D000281EA5F101056DB2E5DC2046F8BD00000F
:1034E0001D400008284150502928455252295B258B
:1034F000735D5B25645D00005B6E6D6920737069B0
:103500005D3A204661696C656420636D6420726574
:1035100073706F6E736520726561642C20627573C1
:10352000206572726F722E2E2E0A00000D000000B0
:103530002DE9FC5F93460F46824601244FF00009B7
:103540004FF400584546AF4200D83DB20A2601214B
:103550006846FFF793FE38B14FF4B872284929A0A6
:10356000FDF7A8FE2CA03CE09DF800006FEA1010CB
:10357000000702D0761E36B2E9D2002C3CD0002ED5
:103580000FDC4FF4BE721E491EA0FDF793FE9DF89E
:1035900000102EA0FDF78EFE38A0FDF78BFE002454
:1035A0002AE0A9B20AEB0900FFF768FE38B140F241
:1035B0008512134913A0FDF77DFE31A011E0BBF188
:1035C000000F11D13B48007870B9022101A8FFF724
:1035D00055FE48B14FF4C87209490AA0FDF76AFECA
:1035E00035A0FDF767FED7E709EB05000FFA80F974
:1035F000781B07043F0CA5D12046BDE8FC9F0000C6
:1036000029400008284150502928455252295B255D
:10361000735D5B25645D00005B6E6D69207370698E
:103620005D3A204661696C65642064617461207252
:103630006573706F6E736520726561642C206275AE
:1036400073206572726F722E2E2E0A005B6E6D698A
:10365000207370695D3A204661696C65642064611D
:10366000746120726573706F6E736520726561643A
:103670002E2E2E2825303278290A00000D00000059
:103680005B6E6D69207370695D3A204661696C6597
:1036900064206461746120626C6F636B2072656189
:1036A000642C20627573206572726F722E2E2E0A42
:1036B00000000000280000205B6E6D6920737069B7
:1036C0005D3A204661696C656420646174612062C2
:1036D0006C6F636B2063726320726561642C20627F
:1036E0007573206572726F722E2E2E0A0000000014
:1036F0002DE9FC478246012700200C4606464FF084
:10370000F0094FF4005801904046844201D8254604
:1037100000E045468DF800901EB1844205D8032094
:1037200004E08442FBD9012000E0022040F0F000D8
:103730008DF8000001216846FFF7ABFD38B140F27B
:10374000C112194919A0FDF7B5FD1DA00CE00AEB47
:1037500006002946FFF79DFD68B14FF4E572124956
:1037600012A0FDF7A7FD24A0FDF7A4FD2FA0FDF7F3
:10377000A1FD002715E02E48007860B9022101A8BC
:10378000FFF787FD38B14FF4EA72074907A0FDF74C
:1037900091FD28A0E8E7701906B2601B0404240C10
:1037A000B2D13846BDE8FC87374000082841505068
:1037B0002928455252295B25735D5B25645D000015
:1037C0005B6E6D69207370695D3A204661696C6556
:1037D00064206461746120626C6F636B20636D644C
:1037E0002077726974652C20627573206572726F20
:1037F000722E2E2E0A0000005B6E6D6920737069B8
:103800005D3A204661696C65642064617461206280
:103810006C6F636B2077726974652C2062757320FE
:103820006572726F722E2E2E0A0000000D000000CD
:10383000280000205B6E6D69207370695D3A204638
:1038400061696C6564206461746120626C6F636B94
:10385000206372632077726974652C20627573200F
:103860006572726F722E2E2E0A0000002DE9FC4147
:10387000CA2500240F460646FF2801D8C425012486
:1038800001460423002228460094FFF711FD012879
:103890000DD040F25E22234923A0FDF70BFD3146F7
:1038A00026A0FDF707FD30A0FDF704FD2AE028461D
:1038B000FFF7D6FD002501280AD04FF419721949E7
:1038C00019A0FDF7F7FC314628A0FDF7F3FC0FE047
:1038D0002246042101A8FFF72BFE012815D04FF442
:1038E0001B72104910A0FDF7E5FC2DA0FDF7E2FCCE
:1038F0001DA0FDF7DFFC00231A461946CF200095D6
:10390000FFF7D6FC0020BDE8FC819DF80610BDF84D
:10391000040061F31F409DF8071040EA0160386021
:103920000120F0E761400008284150502928455205
:1039300052295B25735D5B25645D00005B6E6D69DC
:10394000207370695D3A204661696C656420636D1F
:10395000642C2072656164207265672028253038E8
:1039600078292E2E2E0A00000D0000005B6E6D6976
:10397000207370695D3A204661696C656420636DEF
:103980006420726573706F6E73652C20726561645C
:1039900020726567202825303878292E2E2E0A00BF
:1039A0005B6E6D69207370695D3A204661696C6574
:1039B00064206461746120726561642E2E2E0A0099
:1039C0002DE9F04704004FF0000086B016460D4682
:1039D0008DF80400804607468DF808008DF80C002D
:1039E00004D03DB1801F06B0BDE8F08701AC4FF0B8
:1039F000010801E001AD0127DFF850A000220221FB
:103A00005046FCF753FD4FF47A7915E020788DF895
:103A10000800012303AA02A90D48CDF80090FDF784
:103A2000E3F89DF80C00761E2870B6B207B96D1C3D
:103A3000B8F1000F00D1641C002EE7D10122022151
:103A40005046FCF733FD0020CDE70000000802409F
:103A50004000002038B50546C9240020302D01D88B
:103A6000C32401200A460090042329462046FFF77C
:103A70001FFC01280DD04FF40172144914A0FDF76A
:103A800019FC294617A0FDF715FC21A0FDF712FC33
:103A900019E02046FFF7E4FC012815D040F20A2285
:103AA0000A490BA0FDF706FC29461AA0FDF702FC07
:103AB00017A0FDF7FFFB00200346024601460090D9
:103AC000CF20FFF7F5FB002038BD0000464000087E
:103AD000284150502928455252295B25735D5B25AA
:103AE000645D00005B6E6D69207370695D3A20460D
:103AF00061696C656420636D642C207772697465FC
:103B000020726567202825303878292E2E2E0A004D
:103B10000D0000005B6E6D69207370695D3A204690
:103B200061696C656420636D6420726573706F6E8B
:103B300073652C207772697465207265672028256B
:103B4000303878292E2E2E0A000000002DE9F0478B
:103B5000002581462C4641F214063046FFF7EAF86C
:103B6000002803DB0120FEF743FEF6E71A48FFF7C3
:103B7000E1F810F0010F4FF00C1611D1DFF85C8066
:103B80004FF4FA670120FEF733FE3046FFF7D2F814
:103B9000641CBC4202D96FF004051AE04045F1D123
:103BA000B9F1020F04D10C480D491038FFF72CFB76
:103BB000FFF72CFB4FF06851B1EB005F01D1022001
:103BC00000E00020FDF7D1FD04493046C943FFF76E
:103BD0001BFB2846BDE8F087BC0702009ED0AD1055
:103BE0007DD51C3C2DE9FC4141F28C08124E00258C
:103BF000CDE900682C46022803D1104801901048F6
:103C000000904FF4FA670220FEF7F2FD0198FFF7EB
:103C100091F8641CBC4202D96FF0040508E00099D9
:103C20008142F0D1B14203D100214046FFF7ECFAC6
:103C30002846BDE8FC81000036265302AC0702008E
:103C4000C3C15DD7F8B52F4C112812D013281BD053
:103C50002C2846D032280BD10C462BA0FDF72AFB8E
:103C6000E0780090A378627821782CA0FDF722FB01
:103C7000F8BD00202070097800293AD0FEF7FEFC3C
:103C80002078401C2070F8BD01F10A000646FCF7C0
:103C9000FCFA85B23246217827A0FDF70BFBFEF730
:103CA000C1FC60703DB10B220B2D04D126A1304622
:103CB000FCF7F2FA40B1207861788842DED322A185
:103CC00024A0FDF7F7FA14E01FA128A0FDF7F2FAEF
:103CD000FF20009028A302220C211BA0FEF78CFBE2
:103CE000F8BD0878012809D00028F9D125A0FDF7F2
:103CF000E1FABDE8F840FF20FEF7D2BCBDE8F8408D
:103D0000FEF7CBBC2900002057692D466920636F60
:103D10006E6E65637465640D0A00000057692D4678
:103D2000692049502069732025752E25752E25752B
:103D30002E25750D0A0000005B25645D2053534954
:103D4000443A25730D0A0000444941535F4F4646EB
:103D50004943450063616E206E6F742066696E642E
:103D60002041502025730D0A00000000466F756E3B
:103D700064202573200D0A00446972743938303686
:103D80000000000057692D466920646973636F6EF7
:103D90006E65637465640D0A000000006E6D5F62FD
:103DA00075735F696F63746C006869665F697372CD
:103DB000006869665F73656E64006869665F686164
:103DC0006E646C655F697372006869665F726563D3
:103DD00065697665006869665F72656769737465B1
:103DE000725F6362006D326D5F776966695F6362FF
:103DF000006D326D5F76616C69646174655F6170DE
:103E00005F706172616D6574657273006D326D5FB4
:103E100076616C69646174655F7363616E5F6F7016
:103E200074696F6E73006D326D5F776966695F6389
:103E30006F6E6E6563745F7363006D326D5F77697B
:103E400066695F7265715F636C69656E745F6374E8
:103E5000726C006D326D5F776966695F7265715F64
:103E60007365727665725F696E6974006D326D5F3D
:103E7000776966695F703270006D326D5F77696671
:103E8000695F73746172745F70726F766973696F62
:103E90006E5F6D6F6465006E6D5F636C6B6C6573F8
:103EA000735F77616B65006370755F7374617274C3
:103EB00000636869705F72657365745F616E645FEB
:103EC0006370755F68616C7400636869705F6465D6
:103ED000696E69740070756C6C75705F6374726C78
:103EE000006E6D5F6472765F696E69745F646F7790
:103EF0006E6C6F61645F6D6F6465006E6D5F6472A0
:103F0000765F696E6974006E6D5F6472765F64657A
:103F1000696E6974007370695F636D6400000912F3
:103F20001B242D363F48415A536C657E7719100B80
:103F3000023D342F265158434A757C676E323B2030
:103F400029161F040D7A7368615E574C452B223980
:103F5000300F061D14636A7178474E555C646D76A8
:103F60007F4049525B2C253E3708011A137D746F40
:103F70006659504B42353C272E1118030A565F44B0
:103F80004D727B60691E170C053A3328214F465D40
:103F9000546B627970070E151C232A31384148533F
:103FA0005A656C777E09001B122D243F3658514A02
:103FB000437C756E671019020B343D262F737A61AE
:103FC00068575E454C3B3229201F160D046A637802
:103FD000714E475C55222B3039060F141D252C37A6
:103FE0003E0108131A6D647F7649405B523C352EC2
:103FF0002718110A03747D666F5059424B171E052E
:104000000C333A21285F564D447B7269600E071CC1
:10401000152A233831464F545D626B70797370698D
:104020005F636D645F727370007370695F64617465
:10403000615F72656164007370695F646174615F80
:104040007772697465007370695F77726974655F10
:10405000726567006E6D5F7370695F777269746512
:10406000007370695F726561645F726567006E6D91
:104070005F7370695F72656164006E6D5F73706914
:104080005F696E697400000000000000000001021A
:1040900003040607080900000000010203040000F1
:1040A0004150502052657175657374656420536981
:1040B0007A65206973206C6172676572207468612B
:1040C0006E20746865207265636976656420627528
:1040D000666665722073697A65203C25643E3C25DE
:1040E000643E0A00415050205265717565737465D5
:1040F000642041646472657373206265796F6E64D5
:1041000020746865207265636976656420627566EF
:10411000666572206164647265737320616E6420E9
:104120006C656E6774680A005B6E6D6920737069F8
:104130005D3A204661696C656420696E7465726ED3
:10414000616C20726561642070726F746F636F6C54
:10415000207769746820435243206F6E2C2072656B
:10416000747972696E6720776974682043524320BE
:104170006F66662E2E2E0A0098410008000000206F
:1041800040000000F4120008D84100084000002060
:104190009804000004130008000100000000000063
:1041A000000000000000000000000000000000000F
:1041B00000000000000000000F00000000000000F0
:1041C00000000000010000001000000000000000DE
:0841D0000024F40000000000CF
:04000005080001C925
:00000001FF
